:020000040800F2
:1000000000500020C92F00082B2F00082D2F0008BA
:100010002F2F0008312F0008332F000800000000A8
:10002000000000000000000000000000352F000864
:10003000372F000800000000392F00083B2F000870
:10004000113000081130000811300008113000088C
:10005000113000081130000811300008113000087C
:10006000113000081130000811300008452F000839
:10007000113000081130000811300008113000085C
:10008000113000081130000811300008113000084C
:10009000113000081130000811300008552F0008F9
:1000A000113000081130000811300008113000082C
:1000B000113000081130000811300008113000081C
:1000C000113000081130000811300008113000080C
:1000D00011300008113000081130000811300008FC
:1000E0005F2F0008113000081130000800000000E8
:1000F0000000000000000000000000000000000000
:0C01000000000000000000005FF808F1A3
:10010C0010B5054C237833B9044B13B10448AFF345
:10011C0000800123237010BD64000020000000004B
:10012C007439000808B5034B1BB103490348AFF3FE
:10013C00008008BD00000000680000207439000831
:10014C0070B588B0002404940594069407942E4B43
:10015C009A6942F010029A619A6902F010020092B8
:10016C00009A9A6942F020029A619A6902F0200280
:10017C000192019A9A6942F004029A619A6902F01A
:10018C0004020292029A9A6942F008029A619B69EF
:10019C0003F008030393039B1C4E22464FF40E51AD
:1001AC00304601F0D2FA4FF40E5304930125059515
:1001BC0006940223079304A9304601F0B1F94023B9
:1001CC000493134B0593069504A9124801F0A8F962
:1001DC004FF460430493104B0593069504A90F4804
:1001EC0001F09EF922462146172001F03FF8172016
:1001FC0001F04CF822462146282001F037F828203F
:10020C0001F044F808B070BD00100240001001402D
:10021C00000011100008014000003110000C0140DA
:10022C0000B583B00A4B5A6942F001025A615B690E
:10023C0003F001030193019B002211460B2001F0F6
:10024C0015F80B2001F022F803B05DF804FB00BF99
:10025C000010024038B50D461446B0F1FF3F29D0CE
:10026C00234B1B7800FB03F3224A5363C2B2802159
:10027C00214801F06AFAB5F1FF3F24D01C4B1B78E2
:10028C0005FB03F31B4A9363EAB24FF480711A48DF
:10029C0001F05BFAB4F1FF3F1FD0154B1B7804FB48
:1002AC0003F3144AD363E2B24FF40071124801F025
:1002BC004CFA38BD0F4B00225A63012280210E48A4
:1002CC0001F043FAD7E70B4B00229A6301224FF45B
:1002DC008071094801F039FADCE7064B0022DA6339
:1002EC0001224FF40071044801F02FFAE1E700BF3E
:1002FC0098000020002C01400010014038B5402827
:10030C000AD0B0F5005F17D0B0F5804F14D0B0F51F
:10031C00004F11D000BF51E04FF400513B4801F0A9
:10032C001AFA00F065FC3A4C2368C01A394B186075
:10033C0000F05EFC206041E0374D4FF40051284640
:10034C0001F0FCF9003818BF0120344C20704FF438
:10035C008041284601F0F2F9003818BF0120607086
:10036C004FF40041284601F0E9F90246003818BF65
:10037C000120A070237813B9617801B9FAB91BB1C7
:10038C002649497801B902BB1BB12449497801B906
:10039C000AB31BB12149497801B112B31BB91F49EA
:1003AC00497801B11AB31BB91C4B5B7803B12ABB5A
:1003BC004FF0FF3211461046FFF74CFF38BD0122BB
:1003CC004FF0FF30FFF746FFF8E74FF0FF32012008
:1003DC00FFF740FFF2E74FF0FF310120FFF73AFF44
:1003EC00ECE701214FF0FF30FFF734FFE6E74FF069
:1003FC00FF3201210020FFF72DFFDFE701224FF034
:10040C00FF310020FFF726FFD8E700BF00100140A6
:10041C008400002088000020000C01409000002087
:10042C0072B6FEE700B585B00023019302930393E7
:10043C001048114A02608360037303754FF4602205
:10044C00C26143600123036100F046FE68B90023DA
:10045C000193012302930523039301A9054800F09E
:10046C001FFC20B905B05DF804FBFFF7D9FFFFF7BF
:10047C00D7FF00BFC40100200024014010B596B086
:10048C0000241294139414941594109411940994B8
:10049C000A940B940C940D940E940F9420222146E4
:1004AC0001A802F0D3FD3248324B036005234360B0
:1004BC008460FF23C36004614461846102F0D4FA58
:1004CC00002844D14FF48053129312A9284802F00B
:1004DC00CBFB00283DD1264802F0F2FA00283AD195
:1004EC0000231093119310A9214802F0B9FC0028A5
:1004FC0033D16023099300220A920B920C920D9235
:10050C000E920F9209A91A4802F034FB38BB042250
:10051C0009A9174802F02EFB18BB082209A9144898
:10052C0002F028FBF8B90023019302930393049380
:10053C0005934FF400520692089301A90C4802F05F
:10054C00C5FC90B90A4801F0DBFD16B010BDFFF7F1
:10055C0067FFFFF765FFFFF763FFFFF761FFFFF72B
:10056C005FFFFFF75DFFFFF75BFFFFF759FF00BF72
:10057C00E4000020002C014008B50A480A4B036037
:10058C000A4B436000238360C3604FF480420261D6
:10059C0043618361C361036201F086FA00B908BD4F
:1005AC00FFF73EFF2C01002000540040801A06008B
:1005BC0000B587B000230293039304930593009333
:1005CC00019314484FF080420260472242608360DE
:1005DC004FF6FF72C2600361836102F045FA90B975
:1005EC004FF48053029302A90A4802F03DFB60B914
:1005FC000023009301936946064802F031FC30B9A0
:10060C0007B05DF804FBFFF70BFFFFF709FFFFF7DF
:10061C0007FF00BF9C00002000B595B028220021E8
:10062C000DEB020002F012FD0023059306930793D5
:10063C0008930993019302930393049301220A9262
:10064C004FF480330B930E920222119212934FF4BB
:10065C00E01313930AA801F091FDC8B90F23059379
:10066C0002210691002307934FF4806208920993AC
:10067C0005A801F0B5FF68B9022301934FF40043BC
:10068C00039301A802F078F830B915B05DF804FBBB
:10069C00FFF7C6FEFFF7C4FEFFF7C2FE30B587B00A
:1006AC0000F088FAFFF7B8FFFFF74AFDFFF7B8FD37
:1006BC00FFF7B8FEFFF7E2FEFFF75EFFFFF778FFEC
:1006CC00424C4FF40051204601F045F8C82000F090
:1006DC0095FA4FF40051204601F03DF83C4D0122B3
:1006EC0029463C4800F034FC3B4C0021204602F0EB
:1006FC0049FB0421204602F045FB0821204602F06C
:10070C0041FB364B7F221A70012200214FF0FF3043
:10071C00FFF7A0FD642000F071FA4FF0FF32114694
:10072C001046FFF797FD00F06BF92A682C4B1A70F6
:10073C002B4B1A78264B1B689B1AC3EB0323C2F571
:10074C007F620F32B3FBF2F3244A1370214800F09E
:10075C008BFB00F04DFA234B1B68C01A0F28E7D90E
:10076C001E4B1B78642202FB03F31F4A82FB03120D
:10077C001A44C2F3C7121D49684602F045FC1C4BD3
:10078C001B684EF66022B2FBF3F21A4902A802F083
:10079C003BFC00F02DF90A21084600F069F8164CD4
:1007AC0001222146684600F0B7F819210A2000F012
:1007BC005FF80122214602A800F0AEF800F0F4F830
:1007CC0000F016FA074B1860B2E700BF00100140AA
:1007DC0094000020C4010020E400002098000020B8
:1007EC00800000208C00002081808080E84600087A
:1007FC0088000020F04600080000002008B530B941
:10080C0000214FF48062034802F020FC08BDFF2158
:10081C00F7E700BFFC0100207F2824D83F2922D80D
:10082C0010B4114B1B7913B1B2FA82F25209012A9E
:10083C000ED0CB0800EBC3100C4C225C01F007016E
:10084C0001238B40DB435BB21340235410BC704735
:10085C00CB0800EBC310054C235C01F007018A4068
:10086C0013432354F2E77047F4010020FC010020ED
:10087C00014B188059807047F40100202DE9F84392
:10088C009046244B1B880A7813447F2B3EDC814610
:10089C000D46204B5B884A7813443F2B38DC0026EE
:1008AC0020E01C4B1888598831442044B8FA88F24F
:1008BC00520989B280B2FFF7AFFF01342B78A34203
:1008CC000FD907FA04F313F4004FEAD0114B188830
:1008DC00598831442044424689B280B2FFF79CFFCC
:1008EC00EBE701366A78B24208D96968A9F12003AE
:1008FC0002FB036331F813700024DFE7054A138809
:10090C0029780B4413804846BDE8F8830020FBE7A8
:10091C000020F9E7F401002070B504460E46154698
:10092C0000E00134207838B12A463146FFF7A6FFA3
:10093C00034620788342F4D070BD000000B5C3B0EC
:10094C008DF808104FF0000C09E00CF1010E12F8B4
:10095C000C100DF1080C0CF80E105FFA8EFC9C4577
:10096C00F3D301330A2200929BB202AA0146034838
:10097C0001F078F943B05DF804FB00BF2C010020B6
:10098C0000B585B08DF80C108DF80D200A2300935E
:10099C00022303AA0146034801F064F905B05DF88F
:1009AC0004FB00BF2C01002010B500241AE0A4F1B8
:1009BC005002D2B200217820FFF7E2FF002211464C
:1009CC007820FFF7DDFF102200217820FFF7D8FFF9
:1009DC008023064A02EBC41240217820FFF7AEFFB9
:1009EC000134E4B2072CE2D910BD00BFFC01002099
:1009FC0008B50020FFF702FFFFF7D6FF08BD000087
:100A0C0008B544F6206301227821554801F0E6F937
:100A1C00002840F0A38040F6C41300E0013B002BFB
:100A2C00FCD1AE2200217820FFF7AAFF2022002162
:100A3C007820FFF7A5FF102200217820FFF7A0FFF8
:100A4C00B02200217820FFF79BFFC82200217820DC
:100A5C00FFF796FF002211467820FFF791FF102236
:100A6C0000217820FFF78CFF402200217820FFF72F
:100A7C0087FF812200217820FFF782FFFF220021CF
:100A8C007820FFF77DFFA12200217820FFF778FF67
:100A9C00A62200217820FFF773FFA82200217820DE
:100AAC00FFF76EFF3F2200217820FFF769FFA42299
:100ABC0000217820FFF764FFD32200217820FFF774
:100ACC005FFF002211467820FFF75AFFD522002144
:100ADC007820FFF755FFF02200217820FFF750FF18
:100AEC00D92200217820FFF74BFF22220021782009
:100AFC00FFF746FFDA2200217820FFF741FF122290
:100B0C0000217820FFF73CFFDB2200217820FFF743
:100B1C0037FF202200217820FFF732FF8D220021A1
:100B2C007820FFF72DFF142200217820FFF728FFF3
:100B3C00AF2200217820FFF723FF2E2200217820FE
:100B4C00FFF71EFF0020FFF759FEFFF72DFF054BA7
:100B5C0000221A805A800120587108BD0020FCE741
:100B6C002C010020F401002010B504460E4B1A781D
:100B7C004FF47A73B3FBF2F30C4A1068B0FBF3F04A
:100B8C0000F092FB68B90F2C01D901200AE0002279
:100B9C0021464FF0FF3000F069FB054B1C60002034
:100BAC0000E0012010BD00BF080000201000002054
:100BBC000C00002008B5074A136843F010031360BB
:100BCC00032000F041FB0F20FFF7CEFF01F0D0F91E
:100BDC00002008BD00200240034A1168034B1B781B
:100BEC000B441360704700BFFC0500200800002078
:100BFC00014B1868704700BFFC05002038B504464F
:100C0C00FFF7F6FF0546B4F1FF3F02D0044B1B780B
:100C1C001C44FFF7EDFF401BA042FAD338BD00BFC8
:100C2C0008000020704708B5436A9A6A12F0500F0A
:100C3C001ED19A6A42F400729A621A68926802F49F
:100C4C006022B2F5602F03D01846FFF7EBFF08BD0A
:100C5C001A7B002AF8D19A6A22F480729A629A6AF4
:100C6C0012F4805FF0D19A6A42F001029A62EBE7CB
:100C7C001B6A1B6B9847EAE7704708B5406AFFF799
:100C8C00FBFF08BD704708B5406A836A43F0400318
:100C9C008362C36A43F00403C362FFF7F3FF08BD2A
:100CAC0030B482B00022019290F82420012A00F086
:100CBC008F800346012280F824204A68062A2DD80A
:100CCC000468606B02EB8202053A4FF01F0C0CFAC1
:100CDC0002FC20EA0C000D6805FA02F20243626382
:100CEC000A68092A38D91C68E06802EB42021E3AED
:100CFC004FF0070C0CFA02FC20EA0C008D6805FA88
:100D0C0002F20243E2600A68103A012A34D9002048
:100D1C00002283F8242002B030BC70470C2A0DD876
:100D2C000568286B02EB8202233A1F24944020EAC8
:100D3C0004000C68944020432863D1E70568E86AF6
:100D4C0002EB8202413A1F24944020EA04000C6812
:100D5C0094402043E862C3E71C68206902EB42021E
:100D6C004FF0070C0CFA02FC20EA0C008D6805FA17
:100D7C0002F202432261C6E71A681648824205D085
:100D8C009A6A42F020029A620120C1E7906810F43E
:100D9C00000F1BD1906840F4000090600A68102A84
:100DAC0001D00020B4E70C4A12680C49A1FB0212D6
:100DBC00920C02EB82025200019202E0019A013A7B
:100DCC000192019A002AF9D10020A1E700209FE7A7
:100DDC000220A0E7002401401000002083DE1B430A
:100DEC0030B583B00023019303689A6812F0010FA9
:100DFC0033D104469A6842F001029A60184B1B6882
:100E0C00184AA2FB03239B0C019302E0019B013BBC
:100E1C000193019B002BF9D1FFF7EAFE05462368ED
:100E2C009B6813F0010F16D1FFF7E2FE431B022B58
:100E3C00F5D923689B6813F0010FF0D1A36A43F036
:100E4C001003A362E36A43F00103E362002384F816
:100E5C002430012002E0002000E0002003B030BD6F
:100E6C001000002083DE1B4390F82430012B68D047
:100E7C0010B50446012380F82430FFF7B1FF002899
:100E8C005BD1A36A23F4407323F0010343F4807312
:100E9C00A36223682C4A934227D0A26A22F48012C0
:100EAC00A2625A6812F4806F05D0A26A22F44052F2
:100EBC0042F48052A262A26A12F4805F2BD0E26AE2
:100ECC0022F00602E262002284F824206FF0020273
:100EDC001A6023689A6802F46022B2F5602F1DD064
:100EEC009A6842F480129A602AE0A2F580625268F5
:100EFC0012F4702FD1D0A26A42F48012A262134A6B
:100F0C00526812F4806FD6D0A26A22F4405242F496
:100F1C008052A262CFE70022E262D4E70A4A9342EF
:100F2C0004D09A6842F4A0029A6009E0A2F58062AB
:100F3C00526812F4702FD3D1F3E7002384F82430D5
:100F4C0010BD0220704700BF002801400024014062
:100F5C00F8B504460D46164601684448814259D0FE
:100F6C00434B994256D094F82430012B7CD001236A
:100F7C0084F824302046FFF733FF074600286ED153
:100F8C00A16A21F4706121F0010141F48071A16228
:100F9C002268374B9A4244D0A36A23F48013A3628D
:100FAC00536813F4806F05D0A36A23F4405343F4C1
:100FBC008053A362A36A13F4805F48D0E36A23F0E2
:100FCC000603E362002384F82430236A294A9A62D8
:100FDC00236A294ADA62236A284A1A6323686FF063
:100FEC0002021A602268936843F48073936021684C
:100FFC0033462A464C31206A00F0B4F923689A68CB
:10100C0002F46022B2F5602F24D09A6842F4801268
:10101C009A6027E0154B5B6813F4702FA3D001275F
:10102C0020E0A3F580635B6813F4702FB4D0A36A3F
:10103C0043F48013A3620D4B5B6813F4806FB9D03B
:10104C00A36A23F4405343F48053A362B2E7002312
:10105C00E362B7E79A6842F4A0029A6002E00023C8
:10106C0084F824303846F8BD0227FBE70024014001
:10107C0000280140330C0008870C0008930C000872
:10108C0038B503689A6812F0010F01D1002038BD01
:10109C0004469A6822F001029A60FFF7A9FD054602
:1010AC0023689B6813F0010F13D0FFF7A1FD431BBE
:1010BC00022BF5D923689B6813F0010FF0D0A36ABB
:1010CC0043F01003A362E36A43F00103E3620120DF
:1010DC00DDE70020DBE7000000287BD070B504467C
:1010EC00836A002B4DD02046FFF7CAFFA36A13F08A
:1010FC00100369D1002867D1A26A22F4885222F029
:10110C00020242F00202A2626268E1690A43217B98
:10111C0042EA4102A568B5F5807F02D0012D36D098
:10112C001D46267D012E35D02668716821F4694153
:10113C00294371602568AE68274931401143A96085
:10114C00A168B1F5807F01D0012902D12369013B4F
:10115C001B052568E96A21F470010B43EB622368D7
:10116C0099681E4B0B409A4225D0A36A23F01203B8
:10117C0043F01003A362E36A43F00103E36201202E
:10118C0027E0C36280F8243000F014FFABE74FF483
:10119C008075C6E731B9A169013945EA413141F49D
:1011AC000065C1E7A16A41F02001A162E16A41F04A
:1011BC000101E162B8E70023E362A36A23F00303B1
:1011CC0043F00103A36204E0A36A43F01003A3629B
:1011DC00012070BD01207047FDF7E1FFFE0E1FFFDF
:1011EC00002808DB0901C9B200F1604000F561403C
:1011FC0080F80013704700F00F000901C9B2014BD1
:10120C001954704714ED00E000B500F00700C0F170
:10121C00070CBCF1040F28BF4FF0040C031D062B68
:10122C000FD9C31E4FF0FF3E0EFA0CF021EA00015D
:10123C0099400EFA03FE22EA0E0241EA02005DF822
:10124C0004FB0023EEE70000074AD36823F4E063B5
:10125C001B041B0C000200F4E060034343F0BF636B
:10126C0043F40033D360704700ED00E010B5044642
:10127C00054BD868C0F30220FFF7C6FF0146204695
:10128C00FFF7AEFF10BD00BF00ED00E0002807DB4C
:10129C0000F01F02400901239340024A42F820301B
:1012AC00704700BF00E100E00138B0F1807F0BD245
:1012BC004FF0E0235861054AF02182F823100020FA
:1012CC00986107221A6170470120704700ED00E019
:1012DC0030B40124056CAC40C56B6C600468636071
:1012EC004368102B05D0036899600368DA6030BC42
:1012FC00704703689A600368D960F8E750B310B47C
:10130C0002460168144B0B441448A0FB03031B0951
:10131C009B001364124BD363022382F821300868BC
:10132C006FF30D10536894682343D46823431469F6
:10133C0023435469234394692343D46923430343CC
:10134C000B6000209063012382F8213082F820008A
:10135C0010BC704701207047F8FFFDBFCDCCCCCC42
:10136C000000024038B5044690F82000012832D025
:10137C00012084F8200094F82100C0B2012804D088
:10138C00002384F82030022038BD022084F821008C
:10139C000020A0632568286820F001002860204602
:1013AC00FFF796FFE36A5BB12268136843F00E0304
:1013BC0013602268136843F0010313600020E3E715
:1013CC002268136823F0040313602268136843F047
:1013DC000A031360EDE70220D6E7000038B5C36BB3
:1013EC001A6804682568016C04238B40134235D0BD
:1013FC0015F0040F32D0236813F0200F03D12368AB
:10140C0023F0040323600368434A934214D014323C
:10141C00934218D01432934217D01432934217D0FF
:10142C001432934217D01432934202D04FF08062A0
:10143C0003E04FF4800200E00422384B5A60C36A88
:10144C0003B1984738BD4022F7E74FF48062F4E7C8
:10145C004FF48042F1E74FF48022EEE702238B40F9
:10146C0013423CD015F0020F39D0236813F0200F33
:10147C0006D1236823F00A032360012380F821306E
:10148C000368254A934214D0143293421CD0143270
:10149C0093421BD0143293421BD0143293421BD074
:1014AC001432934202D04FF0007203E04FF400125A
:1014BC0000E00222194B5A60002380F82030836A26
:1014CC00002BBFD09847BDE72022F3E74FF4007202
:1014DC00F0E74FF40052EDE74FF40032EAE708234F
:1014EC008B401342AED015F0080FABD0236823F01D
:1014FC000E032360026CC16B012303FA02F24A60F3
:10150C00836380F82130002380F82030036B002B9C
:10151C0098D0984796E700BF0800024000000240B0
:10152C0070B582B00024A446A1E07E4DAB4214D02D
:10153C000CD8A5F58015AB420FD005F57025AB4244
:10154C000BD0A5F58015AB4210D106E0764DAB4221
:10155C0003D005F58035AB4208D18B68002B50D0F9
:10156C00012B49D04261082400E0CC68BEF1FF0F8A
:10157C0049D806464FEA8C0233680F25954023EA7A
:10158C00050304FA02F2134333604B6813F0805FD7
:10159C006BD0664B9A6942F001029A619B6903F029
:1015AC0001030193019B4FEA9C02951C604B53F87D
:1015BC0025600CF00305AD000F23AB4026EA0306B3
:1015CC005C4B984226D003F58063984200F08C80E7
:1015DC0003F58063984200F0898003F5806398429C
:1015EC0016D0042317E0CC680434BFE7CC68083469
:1015FC00BCE7CC680C34B9E702610824B6E70024D8
:10160C00B4E70424B2E7061DACF108029200B3E77C
:10161C00032300E00023AB4033430232444D45F832
:10162C0022304B6813F4801F62D0434A936843EA1C
:10163C000E0393604B6813F4001F5FD03E4AD368CF
:10164C0043EA0E03D3604B6813F4003F5CD03A4A74
:10165C00536843EA0E0353604B6813F4803F59D030
:10166C00354A136843EA0E0313600CF1010C0B6846
:10167C0033FA0CF254D0012202FA0CF203EA020EF5
:10168C0032EA0303F1D14B68122B3FF64EAF122B0B
:10169C003FF66CAF01A555F823F000BF67150008A5
:1016AC0077150008F91500080B16000879150008C5
:1016BC0079150008791500087915000879150008C6
:1016CC0079150008791500087915000879150008B6
:1016DC0079150008791500087915000879150008A6
:1016EC00F3150008FF150008012394E7022392E785
:1016FC00114A936823EA0E0393609BE70E4AD36862
:10170C0023EA0E03D3609EE70B4A536823EA0E03C9
:10171C005360A1E7084A136823EA0E031360A4E799
:10172C0002B070BD00002210000031100010024009
:10173C000000014000080140000401408368194288
:10174C0001D001207047002070470AB10161704739
:10175C00090401617047C36801EA030221EA03012D
:10176C0041EA02410161704708B5054B5B690342D0
:10177C0000D108BD024B5861FEF7C0FDF9E700BF70
:10178C000004014003685A6912F4806F01D10020F3
:10179C0070476FF480625A6100230363202280F843
:1017AC003D2080F83E30026C42F00402026480F866
:1017BC003C30012070472DE9F04106460C46174697
:1017CC0098463BE0FFF714FA069BC01A404502D836
:1017DC00B8F1000F32D1012D18D033689B6924EA7F
:1017EC0003039BB2B3FA83F35B099F4226D1002318
:1017FC003363202286F83D2086F83E30326C42F06E
:10180C002002326486F83C30012027E033685B69A3
:10181C0024EA03039BB2B3FA83F35B09E5E733686D
:10182C005B6924EA030C1FFA8CFCBCFA8CFC4FEAB3
:10183C005C1C674511D1B8F1FF3FC3D1C4F3074518
:10184C00012DECD033689B6924EA030C1FFA8CFC45
:10185C00BCFA8CFC4FEA5C1CEBE70020BDE8F08185
:10186C002DE9F84305460E469046994653E01A6812
:10187C0042F400721A602B686FF480625A61002384
:10188C002B63202285F83D2085F83E302A6C42F0EF
:10189C0004022A6485F83C3001204AE0FFF7A8F9DD
:1018AC00A0EB0900404502D8B8F1000F33D1012F4D
:1018BC0017D02B689B6926EA03039BB2003B18BF29
:1018CC00012343B300232B63202285F83D2085F8A8
:1018DC003E302A6C42F020022A6485F83C3001200C
:1018EC0027E02B685B6926EA03039BB2003B18BF19
:1018FC000123E6E72B689C6926EA0404A4B2003CA9
:10190C0018BF0124A4B12B685A6912F4806FAED1B0
:10191C00B8F1FF3FC2D1C6F30747012FEAD12B68BC
:10192C005C6926EA0404A4B2003C18BF0124E9E770
:10193C000020BDE8F8830000F0B583B004460D46E6
:10194C0016461F46C36A082B0DD0012B0BD013F57E
:10195C00803F08D0036B122B0AD10268136843F442
:10196C008073136004E02268136843F4807313607F
:10197C000097334600224FF001112046FFF71BFF62
:10198C0080B92369B3F5804F16D1236805F0FE05A5
:10199C001D613B46324613492046FFF761FFF8B9FB
:1019AC0003B0F0BD23681B6813F4807F02D04FF4A2
:1019BC00007323640320F3E7EB11226803F00603A2
:1019CC0043F0F00313613B46324607492046FFF7CC
:1019DC0047FF18B92368EDB21D61DAE70120DFE794
:1019EC000120DDE7020001000800010070B504468B
:1019FC000D46164623685B6913F0800F21D12046F3
:101A0C00FFF7C0FEF8B9B5F1FF3FF3D0FFF7F0F8E0
:101A1C00801BA84201D8002DECD123685B6913F020
:101A2C00800FE7D100232363202284F83D2084F823
:101A3C003E30226C42F02002226484F83C300120BB
:101A4C0000E0002070BD0120FCE770B504460D4697
:101A5C00164623685B6913F0040F21D12046FFF76B
:101A6C0091FEF8B9B5F1FF3FF3D0FFF7C1F8801B39
:101A7C00A84201D8002DECD123685B6913F0040F48
:101A8C00E7D100232363202284F83D2084F83E30E4
:101A9C00226C42F02002226484F83C30012000E0E9
:101AAC00002070BD0120FCE7002800F0CC8070B550
:101ABC00044690F83D30002B77D0242384F83D3039
:101ACC002268136823F0010313602268136843F43F
:101ADC00004313602268136823F40043136000F082
:101AEC003BFE62685A4B9A4264D85A4B98428CBF60
:101AFC0000230123002B40F0A8805749A1FB0031A3
:101B0C008B0C25686A6822F03F0242EA91426A60B7
:101B1C0021680A6A22F03F0266684D4DAE424FD8EA
:101B2C00013313430B622168CA6922F44F4222F03D
:101B3C00FF026568464B9D424CD8431E6D00B3FBBB
:101B4C00F5F3013340F6FC70034278D0C3F30B037A
:101B5C001A43CA6121680B6823F0C003E269206A4A
:101B6C00024313430B6021688B6823F4034323F077
:101B7C00FF032269E068024313438B602168CB6842
:101B8C0023F0FF036269A06902431343CB60226810
:101B9C00136843F00103136000202064202384F8B1
:101BAC003D30206384F83E0070BD80F83C3000F07E
:101BBC004FFA82E7294B98428CBF0023012399E707
:101BCC004FF4967505FB03F3254DA5FB03539B09B9
:101BDC000133A6E7A668BEB9431E05EB450CB3FB63
:101BEC00FCF30133C3F30B03B3FA83F35B0943BB7D
:101BFC00C6B9431E05EB4505B3FBF5F30133C3F33F
:101C0C000B0343F40043A3E7431E05EB850C0CEBDD
:101C1C008C0CB3FBFCF30133C3F30B03B3FA83F368
:101C2C005B09E4E7431E05EB850505EB8505B3FB76
:101C3C00F5F30133C3F30B0343F4404388E7042368
:101C4C0086E7012384E7012070470120ACE700BF41
:101C5C00A08601007F841E0083DE1B43FF083D002D
:101C6C00D34D62102DE9F04385B004460F469146E2
:101C7C0098460C9EFEF7BCFF054694F83D00C0B29A
:101C8C00202804D00227384605B0BDE8F083009523
:101C9C00192301224F492046FFF78DFD002840F003
:101CAC00928094F83C30012B00F08F80012384F853
:101CBC003C3023681A6812F0010F03D11A6842F005
:101CCC0001021A602268136823F400631360212355
:101CDC0084F83D30102384F83E3000232364C4F88C
:101CEC002490A4F82A80638D23853B4BE3622B461A
:101CFC00324639462046FFF71FFE0746002866D1BC
:101D0C000023039323685A6903929B690393039BF3
:101D1C0011E0236C042B01D00127B4E7226813686F
:101D2C0043F400731360F7E72A4631462046FFF769
:101D3C008CFE00282ED1238D002B36D02A4631461E
:101D4C002046FFF753FE0028E3D1626A236812781D
:101D5C001A61606A431C6362618D89B2013989B270
:101D6C006185238D013B9BB223852268516911F05B
:101D7C00040FD9D0002BD7D043781361636A013399
:101D8C006362638D9BB2013B9BB26385238D013BE8
:101D9C002385C9E7236C042B01D0012773E7226844
:101DAC00136843F400731360F7E72268136843F475
:101DBC0000731360202384F83D30002384F83E30F8
:101DCC0084F83C305FE702275DE702275BE70127D9
:101DDC0059E700BF020010000000FFFF2DE9F0439F
:101DEC0085B00446884691461D46FEF701FF94F8DF
:101DFC003D30DBB2202B03D0022005B0BDE8F083D0
:101E0C00064600901923012257492046FFF7D3FCC0
:101E1C00002840F0A08094F83C30012B00F09D800D
:101E2C00012384F83C3023681A6812F0010F03D1A7
:101E3C001A6842F001021A602268136823F40063E6
:101E4C001360242384F83D3000272764474BE3625A
:101E5C0040E023681B6813F4807F02D04FF40073BA
:101E6C0023640320C9E7A02384F83D30226853691A
:101E7C00C3F340035269C2F3802294F83DC05FFA69
:101E8C008CFCBCF1A00F09D043B93AB9FEF7B0FEF7
:101E9C00801BA842E7D8002DE8D1E4E7202384F882
:101EAC003D3023685A6912F0020F31D11A6842F49E
:101EBC0000721A6023686FF480625A6100961923CD
:101ECC00012229492046FFF776FC002849D1013729
:101EDC004F4538D22268136843F480731360009620
:101EEC002B4600224FF001112046FFF764FC00281E
:101EFC00AFD1236808F0FE021A61FEF779FE0646A0
:101F0C0022685369C3F340035269C2F38022B4E7D9
:101F1C001A6842F400721A600023039323685A690A
:101F2C0003929B690393039B0096192301220E498C
:101F3C002046FFF740FC90B9202384F83D30002365
:101F4C0084F83C3059E7202384F83D30002384F892
:101F5C003C30012051E702204FE702204DE70120E1
:101F6C004BE7012049E700BF020010000000FFFF13
:101F7C0082B00E4B9A6942F001029A619A6902F0A2
:101F8C0001020092009ADA6942F08052DA61DB6950
:101F9C0003F080530193019B054A536823F0E063DF
:101FAC0043F00073536002B0704700BF0010024052
:101FBC000000014010B586B00023029303930493F4
:101FCC00059302681E4B9A4201D006B010BD044620
:101FDC0003F56C439A6942F400729A619A6902F4AF
:101FEC0000720092009A9A6942F004029A619B690D
:101FFC0003F004030193019B012302930323039336
:10200C0002A91048FFF78CFA0F48104B036000230D
:10201C00436083608022C2604FF4807202614FF48F
:10202C008062426120228261C361FFF767F918B9AF
:10203C00054B23625C62C8E7FEF7F2F9F8E700BFD4
:10204C0000240140000801408001002008000240EB
:10205C0010B586B000230293039304930593026892
:10206C00114B9A4201D006B010BD104CA36943F03D
:10207C000803A361A36903F008030093009BC0232A
:10208C000293122303930323059302A90848FFF735
:10209C0047FAE36943F40013E361E36903F40013C3
:1020AC000193019BDFE700BF005400400010024089
:1020BC00000C014082B003680F4A934204D0B3F184
:1020CC00804F0CD002B070470C4B9A6942F40062FE
:1020DC009A619B6903F400630093009BF2E703F59C
:1020EC000433DA6942F00102DA61DB6903F00103BF
:1020FC000193019BE6E700BF002C01400010024059
:10210C0000B587B0002302930393049305930268F0
:10211C000D4B9A4202D007B05DF804FB03F5644303
:10212C009A6942F004029A619B6903F004030193DB
:10213C00019B4FF4E063029302230393059302A9DE
:10214C000248FFF7EDF9E6E7002C014000080140DA
:10215C0082B0084B1B68084AA2FB03235B0A00FBF6
:10216C0003F3019300BF019B5A1E0192002BF9D17E
:10217C0002B0704710000020D34D6210002800F010
:10218C00F18170B582B00446036813F0010F2CD0B6
:10219C00994B5B6803F00C03042B1DD0964B5B68CA
:1021AC0003F00C03082B12D06368B3F5803F41D0C9
:1021BC00002B55D103F1804303F504331A6822F444
:1021CC0080321A601A6822F480221A6037E08A4B37
:1021DC005B6813F4803FE7D0874B1B6813F4003F18
:1021EC0003D06368002B00F0BF81236813F0020F4B
:1021FC0075D0814B5B6813F00C0F5FD07E4B5B6826
:10220C0003F00C03082B54D02369002B00F08A80B8
:10221C007A4B01221A60FEF7EBFC0546764B1B68E5
:10222C0013F0020F75D1FEF7E3FC401B0228F5D921
:10223C0003209EE1704A136843F480331360636893
:10224C0043B3FEF7D5FC05466B4B1B6813F4003FFC
:10225C00CBD1FEF7CDFC401B6428F5D9032088E1D7
:10226C00B3F5A02F09D0644B1A6822F480321A609F
:10227C001A6822F480221A60E1E703F18043A3F587
:10228C003C331A6842F480221A601A6842F4803295
:10229C001A60D4E7FEF7ACFC0546574B1B6813F4E9
:1022AC00003FA2D0FEF7A4FC401B6428F5D9032004
:1022BC005FE1514B5B6813F4803FA5D14E4B1B681B
:1022CC0013F0020F03D02369012B40F04F814A4ACF
:1022DC00136823F0F803616943EAC10313602368B0
:1022EC0013F0080F33D0A369002B5CD0434B0122B1
:1022FC00C3F88024FEF77CFC05463F4B5B6A13F069
:10230C00020F21D1FEF774FC401B0228F5D90320E3
:10231C002FE1394A136823F0F803616943EAC103DA
:10232C001360DCE7354B00221A60FEF761FC0546B2
:10233C00314B1B6813F0020FD1D0FEF759FC401B38
:10234C000228F5D9032014E10120FFF701FF2368CF
:10235C0013F0040F00F09680274BDB6913F0805FBD
:10236C0034D1254BDA6942F08052DA61DB6903F033
:10237C0080530193019B0125214B1B6813F4807F33
:10238C0026D0E368012B3DD0002B53D103F18043C1
:10239C0003F504331A6A22F001021A621A6A22F057
:1023AC0004021A6233E0154B0022C3F88024FEF7B6
:1023BC001FFC0546104B5B6A13F0020FC7D0FEF7EB
:1023CC0017FC401B0228F5D90320D2E00025D3E7E7
:1023DC000B4A136843F480731360FEF709FC06463E
:1023EC00074B1B6813F4807FCBD1FEF701FC801BDD
:1023FC006428F5D90320BCE00010024000004242E2
:10240C00007000405F4A136A43F001031362E368F3
:10241C0033B3FEF7EDFB06465A4B1B6A13F0020F63
:10242C002FD1FEF7E5FB801B41F288339842F3D99C
:10243C0003209EE0052B09D0524B1A6A22F00102B0
:10244C001A621A6A22F004021A62E0E74D4B1A6A09
:10245C0042F004021A621A6A42F001021A62D6E7CA
:10246C00FEF7C6FB0646474B1B6A13F0020F08D05B
:10247C00FEF7BEFB801B41F288339842F3D9032050
:10248C0077E0E5B9E369002B72D03E4A526802F05E
:10249C000C02082A56D0022B17D03B4B00221A668E
:1024AC00FEF7A6FB0446374B1B6813F0007F47D0A2
:1024BC00FEF79EFB001B0228F5D9032059E0314A98
:1024CC00D36923F08053D361DCE72F4B00221A66CB
:1024DC00FEF78EFB05462B4B1B6813F0007F06D0D6
:1024EC00FEF786FB401B0228F5D9032041E0236A46
:1024FC00B3F5803F1AD023494B6823F47413226A36
:10250C00606A024313434B601F4B01221A66FEF7AD
:10251C006FFB04461B4B1B6813F0007F0ED1FEF7BC
:10252C0067FB001B0228F5D9032022E0154A5368EB
:10253C0023F40033A1680B435360DCE7002018E060
:10254C00002016E0012B16D00E4B5B6803F4803193
:10255C00226A914211D103F47013626A93420ED134
:10256C00002006E001207047012002E0012000E07D
:10257C00002002B070BD0120FBE70120F9E701202B
:10258C00F7E700BF00100240000042420F4B5B68AF
:10259C0003F00C02082A01D00D487047C3F38342A4
:1025AC000C49885C13F4803F0BD0084B5B68C3F379
:1025BC004043094AD35C064A02FB00F0B0FBF3F03F
:1025CC007047064B03FB00F0704700BF0010024041
:1025DC0000127A00FC460008F846000800093D008D
:1025EC00002800F0A08070B50D460446524B1B68C5
:1025FC0003F007038B420BD24F4A136823F00703F7
:10260C000B431360136803F007038B4240F08D807B
:10261C00236813F0020F17D013F0040F04D0474AAD
:10262C00536843F4E0635360236813F0080F04D03D
:10263C00424A536843F460535360404A536823F052
:10264C00F003A1680B435360236813F0010F31D0E2
:10265C006368012B20D0022B25D0384A126812F067
:10266C00020F64D035494A6822F0030213434B60D1
:10267C00FEF7BEFA0646314B5B6803F00C0362684A
:10268C00B3EB820F16D0FEF7B3FA801B41F28833FE
:10269C009842F0D9032045E0284A126812F4003F12
:1026AC00E0D101203EE0254A126812F0007FD9D11A
:1026BC00012037E0204B1B6803F00703AB420AD91B
:1026CC001D4A136823F007032B431360136803F0B0
:1026DC000703AB422DD1236813F0040F06D0174A21
:1026EC00536823F4E063E1680B435360236813F0F1
:1026FC00080F07D0114A536823F46053216943EA49
:10270C00C1035360FFF742FF0C4B5B68C3F3031329
:10271C000B4AD35CD8400B4B18600B4B1868FEF778
:10272C0023FA002070BD012070470120FAE7012038
:10273C00F8E70120F6E700BF00200240001002403D
:10274C0014470008100000200C000020014B1868F2
:10275C00704700BF1000002008B5FFF7F7FF044BCF
:10276C005B68C3F30223034AD35CD84008BD00BFA7
:10277C00001002400C47000870B582B00446036894
:10278C0013F0010F36D03F4BDB6913F0805F49D15A
:10279C003C4BDA6942F08052DA61DB6903F080531A
:1027AC000193019B0125384B1B6813F4807F3BD0B0
:1027BC00344B1B6A13F4407313D0626802F44072FA
:1027CC009A420ED02F4A136A23F440702F490126E7
:1027DC00C1F840640026C1F84064106213F0010F88
:1027EC0036D1284A136A23F4407361680B43136291
:1027FC00002D3ED1236813F0020F06D0214A5368F6
:10280C0023F44043A1680B435360236813F0100F6B
:10281C0034D01C4A536823F48003E1680B435360A3
:10282C0000202CE00025BEE7174A136843F48073A0
:10283C001360FEF7DDF90646134B1B6813F4807F1B
:10284C00B6D1FEF7D5F9801B6428F5D9032016E024
:10285C00FEF7CEF906460B4B1B6A13F0020FC0D1E4
:10286C00FEF7C6F9801B41F288339842F3D9032056
:10287C0005E0D36923F08053D361BBE7002002B09D
:10288C0070BD00BF001002400070004000004242CA
:10289C0030B4026A036A23F001030362456883695A
:1028AC0023F073030C681C4322F002028B68134361
:1028BC000B4A904206D0456084614A6842630362C9
:1028CC0030BC704723F00803CA681A4322F0040393
:1028DC0025F440754A692A438D691543EBE700BF1F
:1028EC00002C014030B4036A026A22F48072026246
:1028FC004468C26922F073020D68154323F4007317
:10290C008A6843EA02230D4A904206D04460C561AE
:10291C004A68C263036230BC704723F40063CA6820
:10292C0043EA022323F4806324F440544A6944EAC2
:10293C0002148A6944EA0214E8E700BF002C014043
:10294C0030B4036A026A22F4805202624468C2699B
:10295C0022F4E6420D6842EA052223F400538D6806
:10296C0043EA0533074DA84206D04460C2614A6869
:10297C000264036230BC704724F480444D6944EA1D
:10298C008514F2E7002C014010B4036A046A24F0A9
:10299C0001040462846924F0F00C4CEA021223F066
:1029AC000A030B438261036210BC704710B4036AC4
:1029BC00046A24F010040462846924F4704C4CEA18
:1029CC00023223F0A00343EA01138261036210BCBC
:1029DC007047836823F070030B4343F00703836055
:1029EC007047704703681F4A90420AD0B0F1804F7D
:1029FC0007D0A2F59432904203D002F58062904247
:102A0C0003D123F070034A681343164A90420AD04C
:102A1C00B0F1804F07D0A2F59432904203D002F56A
:102A2C008062904203D123F44073CA68134323F0AD
:102A3C0080034A69134303608B68C3620B6883622B
:102A4C00084B98420AD001234361036913F0010F2C
:102A5C0003D0036923F00103036170470B6903631F
:102A6C00F1E700BF002C014040B310B5044690F8CC
:102A7C003D30F3B1022384F83D30214651F8040B6C
:102A8C00FFF7B0FF012384F8463084F83E3084F819
:102A9C003F3084F8403084F8413084F8423084F878
:102AAC00433084F8443084F8453084F83D300020BD
:102ABC0010BD80F83C30FFF7FDFADBE701207047D2
:102ACC0040B310B5044690F83D30F3B1022384F8BE
:102ADC003D30214651F8040BFFF784FF012384F8A5
:102AEC00463084F83E3084F83F3084F8403084F827
:102AFC00413084F8423084F8433084F8443084F810
:102B0C00453084F83D30002010BD80F83C30FFF794
:102B1C0068FFDBE70120704730B4036A026A22F0D9
:102B2C00100202624468826922F4E6420D6842EAAD
:102B3C00052223F020038D6843EA05130C4DA842AF
:102B4C0006D0446082614A688263036230BC70477D
:102B5C0023F08003CD6843EA051323F0400324F4EB
:102B6C0040644D6944EA85048D6944EA8504E8E7CC
:102B7C00002C014038B590F83C30012B66D004464F
:102B8C000D46012380F83C300C2A5AD8DFE802F0BD
:102B9C00075959591B59595930595959440000680A
:102BAC00FFF776FE2268936943F00803936122686D
:102BBC00936923F0040393612268936929690B4399
:102BCC00936100203EE00068FFF7A6FF226893693E
:102BDC0043F4006393612268936923F480639361E7
:102BEC0022689369296943EA01239361002029E053
:102BFC000068FFF777FE2268D36943F00803D361BE
:102C0C002268D36923F00403D3612268D36929694C
:102C1C000B43D361002015E00068FFF791FE22689A
:102C2C00D36943F40063D3612268D36923F48063CE
:102C3C00D3612268D369296943EA0123D361002057
:102C4C0000E00120002384F83C3038BD0220FCE772
:102C5C0010B4846824F47F4C42EA03220A4342EA0B
:102C6C000C02826010BC704790F83C30012B78D07D
:102C7C0010B50446012380F83C30022380F83D3027
:102C8C000268936823F47F4323F0770393600B6807
:102C9C00602B4CD023D8402B54D011D8202B03D0F0
:102CAC000AD80BB1102B05D119462068FFF791FEFD
:102CBC00002028E0012026E0302BF5D0012022E076
:102CCC00502B0AD1CA6849680068FFF75DFE502195
:102CDC002068FFF77EFE002015E0012013E0B3F51D
:102CEC00805F3AD0B3F5005F14D0702B37D1CB682E
:102CFC004A6889680068FFF7ABFF2268936843F065
:102D0C00770393600020012384F83D30002384F87E
:102D1C003C3010BDCB684A6889680068FFF798FFA3
:102D2C002268936843F4804393600020EBE7CA6801
:102D3C0049680068FFF73AFE60212068FFF749FEFA
:102D4C000020E0E7CA6849680068FFF71DFE4021D3
:102D5C002068FFF73EFE0020D5E70020D3E70120D6
:102D6C00D1E70220704701F01F014FF0010C0CFA63
:102D7C0001FC036A23EA0C030362036A8A401343CF
:102D8C000362704710B50446084651BB94F83E30B8
:102D9C00DBB2013B18BF0123002B5BD1002839D1DA
:102DAC00022384F83E30012201462068FFF7DBFF46
:102DBC0023682A4A93423DD02368284A93423ED046
:102DCC00B3F1804F3BD0A2F59432934237D002F549
:102DDC008062934233D01A6842F001021A600020DC
:102DEC0039E0042908D008290DD094F84130DBB221
:102DFC00013B18BF0123CFE794F83F30DBB2013B16
:102E0C0018BF0123C8E794F84030DBB2013B18BF70
:102E1C000123C1E7042805D0082807D0022384F831
:102E2C004130C0E7022384F83F30BCE7022384F82A
:102E3C004030B8E75A6C42F400425A64BCE79A68D6
:102E4C0002F00702062A07D01A6842F001021A6043
:102E5C00002000E0012010BD0020FCE7002C014008
:102E6C0090F83C20012A2CD010B40346012280F8A3
:102E7C003C20022280F83D2002685068946820F0C3
:102E8C00700C086840EA0C0050601A680E488242C8
:102E9C000AD0B2F1804F07D0A0F59430824203D013
:102EAC0000F58060824204D124F0800449682143FB
:102EBC009160012283F83D20002083F83C0010BC77
:102ECC0070470220704700BF002C0140024690F86A
:102EDC003C30012B21D0012380F83C30CB6823F40B
:102EEC0040738868034323F480634868034323F4E6
:102EFC0000630868034323F480530869034323F4F5
:102F0C0000534869034323F48043C9690B43116898
:102F1C004B64002082F83C00704702207047FEE7AB
:102F2C00FEE7FEE7FEE7FEE770477047704708B51F
:102F3C00FDF752FE08BD000008B50248FEF74EFA38
:102F4C0008BD00BF8001002008B54020FEF70CFC36
:102F5C0008BD08B54FF40050FEF706FC4FF4804056
:102F6C00FEF702FC4FF40040FEF7FEFB08BD00002C
:102F7C0010B503460C4A0D490D48006840B10C4889
:102F8C0000680344521A934206D8094A136010BDD4
:102F9C000748084C0460F2E700F060F80C2303606B
:102FAC004FF0FF30F3E700BF00500020000400009A
:102FBC00000600205007002070470000FFF7FCFFC0
:102FCC000B480C490C4A002302E0D458C45004337B
:102FDC00C4188C42F9D3094A094C002301E0136050
:102FEC000432A242FBD300F03FF8FDF757FB7047C9
:102FFC0000000020640000206047000864000020EE
:10300C004C070020FEE700000EB46FF0004110B535
:10301C0000249DB01FAB02900690079104910948C3
:10302C00094953F8042B0591006802A901931B94DC
:10303C0000F092F9029B1C701DB0BDE8104003B06B
:10304C00704700BF140000200802FFFF0346024433
:10305C00934200D1704703F8011BF9E7014B186844
:10306C00704700BF1400002070B500260C4D0D4CAD
:10307C00641BA410A64209D100F076FC00260A4D70
:10308C000A4C641BA410A64205D170BD55F8043B34
:10309C0098470136EEE755F8043B98470136F2E7BE
:1030AC005847000858470008584700085C47000874
:1030BC007047704738B50546002940D051F8043C9C
:1030CC000C1F002BB8BFE41800F0DEF81C4A136884
:1030DC0033B9636014602846BDE8384000F0DAB8B4
:1030EC00A34208D9206821188B4201BF19685B687C
:1030FC0009182160EDE71A465B680BB1A342FAD9B7
:10310C0011685018A0420BD120680144501883421A
:10311C001160E0D118685B68084410605360DAE70E
:10312C0002D90C232B60D6E7206821188B4201BFF3
:10313C0019685B680918216063605460CBE738BD7F
:10314C004807002070B50F4E0C463168054611B982
:10315C0000F0A8FB30602146284600F0A3FB431C7E
:10316C0003D14FF0FF34204670BDC41C24F003047F
:10317C00A042F8D0211A284600F094FB0130F2D17D
:10318C00EFE700BF440700202DE9F843CD1C25F0E4
:10319C00030508350C2D38BF0C25002D064601DB28
:1031AC00A94204D90C2333600020BDE8F883DFF872
:1031BC00D48000F069F8D8F800301C4644BB29468E
:1031CC003046FFF7BFFF431C044658D1D8F80040E7
:1031DC002746002F43D1002C4BD02368394630466C
:1031EC0004EB030900F05EFB814542D121683046B7
:1031FC006D1A2946FFF7A6FF01303AD023682B44FD
:10320C002360D8F800305A6862BBC8F800700FE031
:10321C002268521B20D40B2A17D96119A3422560AE
:10322C0018BF5960636808BFC8F8001062514B6042
:10323C00304600F02FF804F10B00231D20F007009E
:10324C00C21A1CBF1B1AA350AFE76268A3420CBF83
:10325C00C8F800205A60EBE723466468AEE73C46AA
:10326C007F68B6E71A465B68A342FBD10023536024
:10327C00DEE70C233046336000F00CF894E7056071
:10328C00D6E700BF480700200148FFF711BF00BF79
:10329C00400700200148FFF70CBF00BF400700208B
:1032AC002DE9F0471F468E688246BE420C4690467A
:1032BC000B682DD8B1F90C2012F4906F26D06569EB
:1032CC00096905EB4505A3EB010905EBD5757B1CDD
:1032DC004B446D109D4238BF1D46530527D52946DA
:1032EC00FFF752FF064660B34A46216900F0F8FA30
:1032FC00A38923F4906343F08003A38126614E4499
:10330C0026603E466561A5EB0905A560BE4200D965
:10331C003E4632464146206800F0AAFA0020A368D7
:10332C009B1BA360236833442360BDE8F0872A46C7
:10333C0000F0E4FA06460028E0D150462169FFF778
:10334C00B9FE0C23CAF80030A3894FF0FF3043F0CC
:10335C004003A381E9E700002DE9F04F98468B89E3
:10336C0007461B060D4614469DB010D50B6973B964
:10337C004021FFF709FF2860286130B90C233B601E
:10338C004FF0FF301DB0BDE8F08F40236B61002380
:10339C00099320238DF8293030234FF00109CDF803
:1033AC000C80DFF898818DF82A3023469A4613F862
:1033BC00012B0AB1252AF9D1BAEB040B0BD05B46D1
:1033CC00224629463846FFF76BFF013000F0A780F4
:1033DC00099A5A4409929AF80030002B00F09F8009
:1033EC0000234FF0FF32CDE905230AF1010A0493C3
:1033FC0007938DF853301A935446052214F8011B89
:10340C004E4800F05FFA049AD8B9D00644BF202386
:10341C008DF85330110744BF2B238DF853309AF895
:10342C0000302A2B15D0544600204FF00A0C079A76
:10343C00214611F8013B303B092B4BD9B0B1079217
:10344C0014E0A0EB080309FA03F31343A246049318
:10345C00D2E7039B191D1B680391002BBBBF5B427A
:10346C0042F0020207930793B8BF049223782E2BE5
:10347C000AD163782A2B32D1039B02341A1D1B68A4
:10348C00039243EAE3730593DFF8B4A0032250469A
:10349C00217800F017FA38B14022049BA0EB0A0007
:1034AC00824013430134049314F8011B062225486F
:1034BC008DF8281000F006FA002836D0224B1BBBE2
:1034CC00039B073323F0070308330393099B33440F
:1034DC0009936AE70C4601200CFB0232A8E7002393
:1034EC004FF00A0C194601340593204610F8012BB5
:1034FC00303A092A03D9002BC6D00591C4E70446FB
:10350C0001230CFB0121F0E703AB00932A4638465C
:10351C000E4B04A9AFF30080421C0646D6D1AB89F2
:10352C005B063FF52DAF09982CE703AB00932A46B9
:10353C003846064B04A900F07DF8EDE72447000857
:10354C002A4700082E47000800000000AD32000892
:10355C002DE9F047164698468A680B690746934250
:10356C00B8BF1346336091F843200C46DDF8209029
:10357C000AB1013333602368990642BF33680233C2
:10358C003360256815F0060506D104F1190AE368C5
:10359C0032689B1AAB422BDC94F843302268003B18
:1035AC0018BF0123920630D44146384604F1430239
:1035BC00C847013023D02368226903F00603042B8B
:1035CC0014BF002533684FF0000608BFE56804F10E
:1035DC001A0408BFED1A54F8123C08BF25EAE57529
:1035EC009342C4BF9B1AED18B5421AD1002008E0D3
:1035FC000123524641463846C847013003D14FF0AB
:10360C00FF30BDE8F0870135C1E73020E11881F8C3
:10361C0043005A1C94F845102244023382F843109C
:10362C00C2E70123224641463846C8470130E6D05E
:10363C000136D9E72DE9FF470F7E9146782F80465A
:10364C000C469A460C9E01F1430207D8622F0AD809
:10365C00002F00F0D180582F00F0B88004F1420602
:10366C0084F842703AE0A7F16303152BF6D801A158
:10367C0051F823F0D9360008ED36000869360008F9
:10368C00693600086936000869360008ED3600080E
:10369C006936000869360008693600086936000882
:1036AC00EB37000817370008A53700086936000803
:1036BC00693600080D38000869360008173700080D
:1036CC006936000869360008AD37000833681A1DE2
:1036DC001B68326004F1420684F8423001239CE0FE
:1036EC0033682068191D3160060601D51D6803E09A
:1036FC004506FBD5B3F90050002D03DA2D236D429E
:10370C0084F843300A23584811E0216833680806CE
:10371C0053F8045B02D4490648BFADB26F2F336037
:10372C0014BF0A2308235048002184F8431066680C
:10373C00002EA66005DB21682E4321F004012160D8
:10374C004BD01646B5FBF3F103FB1157C75D06F8DA
:10375C00017D2F46BB420D46F4D9082B0BD12368B3
:10376C00DF0708D5236961689942DEBF302306F86C
:10377C00013C06F1FF36921B22614B462146404626
:10378C00CDF800A003AAFFF7E3FE01304AD14FF0B9
:10379C00FF3004B0BDE8F087236843F020032360BA
:1037AC007827324884F84570236831681F0651F831
:1037BC00045B02D45F0648BFADB23160D90744BF89
:1037CC0043F0200323601DB11023ADE72648E9E741
:1037DC00236823F020032360F6E71646BDE7336821
:1037EC002568181D616930602E061B6801D51960AB
:1037FC0002E06806FBD51980002316462361BCE75E
:10380C00336800211A1D32601E686268304600F071
:10381C0059F808B1801B606063682361002384F849
:10382C004330AAE73246494640462369D047013027
:10383C00ADD023689B0713D4E068039B9842B8BFB4
:10384C001846A6E70123324649464046D047013088
:10385C009DD00135E36803995B1AAB42F2DCEBE7D0
:10386C00002504F11906F5E735470008464700081E
:10387C00884210B501EB020402D98442234607D8D2
:10388C00431EA14208D011F8012B03F8012FF8E7D1
:10389C00014602448A4200D110BD13F8014D02F8D2
:1038AC00014DF7E738B50023054D044608462B605B
:1038BC00FFF75EFB431C02D12B6803B1236038BDBC
:1038CC003C070020034610B5C9B202449342184687
:1038DC0001D1002003E0047801338C42F6D110BDF5
:1038EC000A44914200F1FF3300D1704710B511F832
:1038FC00014B914203F8014FF9D110BD2DE9F04174
:10390C00074614460D4621B91146BDE8F041FFF7B4
:10391C003BBC2AB9FFF7CEFB25462846BDE8F08113
:10392C0000F01AF88442064602D8B4EB500FF4D8D3
:10393C0021463846FFF728FC804608B94546ECE797
:10394C00B4422246294628BF3246FFF7C9FF294612
:10395C003846FFF7AFFBF1E751F8043C181F002B7A
:10396C00BCBF0B58C0187047F8B500BFF8BC08BCFA
:10397C009E467047F8B500BFF8BC08BC9E46704721
:10398C00000000000000000000000000000000002B
:10399C00000000000000000000000000000000001B
:1039AC00000000000000000C000C000C000C000CCF
:1039BC00000C000C000C000C000C000C0000000CA7
:1039CC00000C0000000000000000001B001B001B8E
:1039DC00001B001B000000000000000000000000A5
:1039EC000000000000000000000000000000801932
:1039FC00801980198019C07FC07F80190033C07F67
:103A0C00C07F00330033003300330000000000009F
:103A1C000000001E003F807580650074003C001E95
:103A2C0000078005806580658075003F001E0004DE
:103A3C00000400000000007000D840D8C0D880D925
:103A4C0000730006000C801BC036C066C046C00662
:103A5C0080030000000000000000001E003F003347
:103A6C0000330033001E000CC03CC06680638061D4
:103A7C008063C03E801C0000000000000000000CB1
:103A8C00000C000C000C000C0000000000000000FA
:103A9C00000000000000000000000000000000001A
:103AAC00800000010003000600060004000C000C5E
:103ABC00000C000C000C000C0004000600060003B7
:103ACC0000018000002000100018000C000C000405
:103ADC000006000600060006000600060004000CA6
:103AEC00000C0018001000200000000C002D003FFE
:103AFC00001E003300000000000000000000000069
:103B0C0000000000000000000000000000000000A9
:103B1C000000000C000C000C000CC0FFC0FF000CDF
:103B2C00000C000C000C0000000000000000000065
:103B3C000000000000000000000000000000000079
:103B4C0000000000000000000000000C000C00044D
:103B5C00000400080000000000000000000000004D
:103B6C00000000000000001E001E0000000000000D
:103B7C000000000000000000000000000000000039
:103B8C000000000000000000000000000000000029
:103B9C000000000C000C00000000000000000003FE
:103BAC00000300030006000600060006000C000CD3
:103BBC00000C000C00180018001800000000000099
:103BCC000000001E003F0033806180618061806DC9
:103BDC00806D8061806180610033003F001E0000B9
:103BEC000000000000000006000E001E003600263B
:103BFC000006000600060006000600060006000689
:103C0C0000060000000000000000001E003F807352
:103C1C0080618061800100030006000C00180030F8
:103C2C000060807F807F0000000000000000001C0E
:103C3C00003E006300630003000E000E00038001D1
:103C4C00800180618073003F001E000000000000B6
:103C5C0000000006000E000E001E001E00160036AE
:103C6C0000360066807F807F00060006000600009C
:103C7C00000000000000007F007F0060006000601A
:103C8C00006E007F80638001800180618073003F43
:103C9C00001E0000000000000000001E003F8033EA
:103CAC0080610060006E007F807380618061806144
:103CBC008033003F001E0000000000000000807FE9
:103CCC00807F80010003000300060006000C000C3E
:103CDC00000C00080018001800180000000000007C
:103CEC000000001E003F8063806180610021001E87
:103CFC00003F8061806180618061003F001E000098
:103D0C00000000000000001E003F00738061806115
:103D1C0080618073803F801D800180610073003F53
:103D2C00001E000000000000000000000000000069
:103D3C000000000C000C000000000000000000005F
:103D4C000000000C000C000000000000000000004F
:103D5C000000000000000000000C000C000000003F
:103D6C00000000000000000C000C0004000400081F
:103D7C00000000000000000080008003000E0038EE
:103D8C0000600038000E800380000000000000007E
:103D9C000000000000000000000000000000807F18
:103DAC00807F00000000807F807F0000000000000A
:103DBC0000000000000000000000000000000000F7
:103DCC0000400070001C000780010007001C007000
:103DDC000040000000000000000000000000001F78
:103DEC00803FC071C060C000C00180030007000E9E
:103DFC00000C000C0000000C000C00000000000087
:103E0C000000001E003F803180718063806F806DE8
:103E1C00806D806F806700600032003E001C0000E7
:103E2C00000000000000000E000E001B001B001B19
:103E3C00001B80318031803F803F8031C060C0608A
:103E4C00C0600000000000000000007C007E0063E9
:103E5C00006300630063007E007E0063806180610C
:103E6C008063007F007E0000000000000000001E48
:103E7C00003F803180610060006000600060006085
:103E8C00006080618031003F001E000000000000D7
:103E9C000000007C007F0063806380618061806132
:103EAC0080618061806100630063007E007C0000A3
:103EBC00000000000000807F807F006000600060D8
:103ECC000060007F007F0060006000600060807F09
:103EDC00807F0000000000000000807F807F006079
:103EEC00006000600060007F007F00600060006088
:103EFC000060006000600000000000000000001E78
:103F0C00003F8031806100600060006080638063EE
:103F1C00806180618031803F001E00000000000045
:103F2C000000806180618061806180618061807F40
:103F3C00807F806180618061806180618061000030
:103F4C00000000000000003F003F000C000C000CC3
:103F5C00000C000C000C000C000C000C000C003FC2
:103F6C00003F000000000000000080018001800183
:103F7C00800180018001800180018001806180616D
:103F8C008073003F001E0000000000000000C060B5
:103F9C008061006300660066006C0078007C00663F
:103FAC000066006380618061C0600000000000005A
:103FBC000000006000600060006000600060006055
:103FCC0000600060006000600060807F807F000007
:103FDC00000000000000C071C071C07BC07AC06AD4
:103FEC00C06AC06EC064C060C060C060C060C060A9
:103FFC00C0600000000000000000807180718079BA
:10400C0080798079806D806D806D80658067806738
:10401C008067806380630000000000000000001EC9
:10402C00003F0033806180618061806180618061CC
:10403C00806180610033003F001E00000000000022
:10404C000000007E007F80638061806180618063FE
:10405C00007F007E00600060006000600060000077
:10406C00000000000000001E003F003380618061F2
:10407C008061806180618061806580670033803FF2
:10408C00401E0000000000000000007E007F8063E6
:10409C00806180618063007F007E00660063006346
:1040AC0080618061C0600000000000000000000E14
:1040BC00001F8031803100300038001E0007800363
:1040CC00806180618031003F001E00000000000014
:1040DC000000C0FFC0FF000C000C000C000C000C1A
:1040EC00000C000C000C000C000C000C000C000070
:1040FC00000000000000806180618061806180614F
:10410C008061806180618061806180618073003F2B
:10411C00001E0000000000000000C060C060C06015
:10412C00803180318031001B001B001B001B000EF6
:10413C00000E000E00040000000000000000C0C0D3
:10414C00C0C0C0C0C0C0C0C0C0CC804C804C805E61
:10415C0080528052807380618061000000000000FA
:10416C000000C0C0806080610033003B001E000C6A
:10417C00000C001E001F003B80718061C0C000005D
:10418C00000000000000C0C080618061003300337B
:10419C00001E001E000C000C000C000C000C000C8F
:1041AC00000C0000000000000000803F803F8001F8
:1041BC00000300030006000C000C0018001800306F
:1041CC000060807F807F000000000000000F000F67
:1041DC00000C000C000C000C000C000C000C000C73
:1041EC00000C000C000C000C000C000C000F000F5D
:1041FC000000001800180018000C000C000C000C3B
:10420C000006000600060006000300030003000081
:10421C0000000000001E001E00060006000600063E
:10422C000006000600060006000600060006000652
:10423C0000060006001E001E0000000C000C001EF4
:10424C000012003300338061806100000000000028
:10425C000000000000000000000000000000000052
:10426C000000000000000000000000000000000042
:10427C00000000000000000000000000E0FF000053
:10428C00000000380018000C0000000000000000C6
:10429C000000000000000000000000000000000012
:1042AC000000000000000000000000000000001FE3
:1042BC00803F80618001801F803F80618063807FB0
:1042CC00C0380000000000000000006000600060CA
:1042DC000060006E007F807380618061806180610E
:1042EC008073007F006E00000000000000000000E2
:1042FC00000000000000001E003F80738061006021
:10430C00006080618073003F001E00000000000010
:10431C0000008001800180018001801D803F80733E
:10432C0080618061806180618073803F801D0000AE
:10433C000000000000000000000000000000001E53
:10434C00003F00738061807F807F00608071003F40
:10435C00001E0000000000000000C007C00F000C91
:10436C00000C807F807F000C000C000C000C000CFB
:10437C00000C000C000C000000000000000000000D
:10438C0000000000801D803F80738061806180612F
:10439C0080618073803F801D80018063007F003EC0
:1043AC0000000060006000600060006F807F807122
:1043BC0080618061806180618061806180610000CA
:1043CC000000000000000006000600000000003E97
:1043DC00003E000600060006000600060006000669
:1043EC0000060000000000000006000600000000AF
:1043FC00003E003E00060006000600060006000611
:10440C000006000600060046007E003C000000602E
:10441C00006000600060806100630066006C007CDE
:10442C000076006300638061C06000000000000043
:10443C000000003E003E00060006000600060006D6
:10444C000006000600060006000600060006000036
:10445C00000000000000000000000000000080DDF3
:10446C00C0FFC0CEC0CCC0CCC0CCC0CCC0CCC0CCAB
:10447C00C0CC0000000000000000000000000000A4
:10448C000000006F807F807180618061806180613D
:10449C00806180618061000000000000000000006D
:1044AC00000000000000001E003F807380618061EE
:1044BC00806180618073003F001E000000000000DE
:1044CC000000000000000000006E007F807380611F
:1044DC008061806180618073007F006E006000608D
:1044EC00006000600000000000000000801D803FA4
:1044FC00807380618061806180618073803F801DEA
:10450C00800180018001800100000000000000009B
:10451C0000000067803F0039003000300030003070
:10452C0000300030003000000000000000000000EF
:10453C00000000000000001E803F80610060007FD2
:10454C00803F80018061007F001E000000000000A1
:10455C0000000000000800180018007F007F001801
:10456C0000180018001800180018801F800F000099
:10457C00000000000000000000000000000080614E
:10458C008061806180618061806180618063807FF7
:10459C00803D000000000000000000000000000052
:1045AC000000C060803180318031001B001B001B7B
:1045BC00000E000E000600000000000000000000CD
:1045CC0000000000000080DD80DD80DD005500551E
:1045DC000055007700770022002200000000000048
:1045EC000000000000000000000080610033003378
:1045FC00001E000C000C001E003300338061000014
:10460C0000000000000000000000000080618061DC
:10461C00803100330033001B001B001B000E000E0A
:10462C00000E001C007C0070000000000000000068
:10463C000000C07FC07F800100030006000C001842
:10464C000030C07FC07F00000000000080038007A6
:10465C0000060006000600060006000E001C001CEA
:10466C00000E000600060006000600068007800308
:10467C0000060006000600060006000600060006FE
:10468C0000060006000600060006000600060006EE
:10469C00000600060038003C000C000C000C000C5E
:1046AC00000C000E00070007000E000C000C000CA4
:1046BC00000C000C003C0038000000000000000062
:1046CC000000000000008038807F004700000000E0
:1046DC000000000000000000000000002564202500
:1046EC002500000025642052504D000001020000FE
:1046FC0002030405060708090A0B0C0D0E0F101017
:10470C000000000001020304000000000000000093
:10471C000102030406070809232D302B2000686CC6
:10472C004C006566674546470030313233343536C8
:10473C003738394142434445460030313233343501
:0C474C003637383961626364656600002E
:044758003101000823
:04475C000D01000843
:104760000B1200008C39000801000000100000004E
:1047700000127A001800002000000000040600204B
:104780006C060020D406002000000000000000009D
:104790000000000000000000000000000000000019
:1047A0000000000000000000000000000000000009
:1047B00000000000000000000000000000000000F9
:0447C00000000000F5
:0400000508002FC9F7
:00000001FF
